{
  "_format": "hh-sol-artifact-1",
  "contractName": "RedemptionTracker",
  "sourceName": "contracts/RedemptionTracker.sol",
  "abi": [
    {
      "inputs": [],
      "stateMutability": "nonpayable",
      "type": "constructor"
    },
    {
      "inputs": [
        {
          "internalType": "address",
          "name": "owner",
          "type": "address"
        }
      ],
      "name": "OwnableInvalidOwner",
      "type": "error"
    },
    {
      "inputs": [
        {
          "internalType": "address",
          "name": "account",
          "type": "address"
        }
      ],
      "name": "OwnableUnauthorizedAccount",
      "type": "error"
    },
    {
      "anonymous": false,
      "inputs": [
        {
          "indexed": true,
          "internalType": "address",
          "name": "previousOwner",
          "type": "address"
        },
        {
          "indexed": true,
          "internalType": "address",
          "name": "newOwner",
          "type": "address"
        }
      ],
      "name": "OwnershipTransferred",
      "type": "event"
    },
    {
      "anonymous": false,
      "inputs": [
        {
          "indexed": true,
          "internalType": "uint256",
          "name": "tokenId",
          "type": "uint256"
        },
        {
          "indexed": true,
          "internalType": "address",
          "name": "redeemer",
          "type": "address"
        },
        {
          "indexed": false,
          "internalType": "uint256",
          "name": "timestamp",
          "type": "uint256"
        }
      ],
      "name": "Redeemed",
      "type": "event"
    },
    {
      "inputs": [
        {
          "internalType": "uint256",
          "name": "tokenId",
          "type": "uint256"
        }
      ],
      "name": "isRedeemed",
      "outputs": [
        {
          "internalType": "bool",
          "name": "",
          "type": "bool"
        }
      ],
      "stateMutability": "view",
      "type": "function"
    },
    {
      "inputs": [],
      "name": "owner",
      "outputs": [
        {
          "internalType": "address",
          "name": "",
          "type": "address"
        }
      ],
      "stateMutability": "view",
      "type": "function"
    },
    {
      "inputs": [
        {
          "internalType": "uint256",
          "name": "tokenId",
          "type": "uint256"
        }
      ],
      "name": "redeem",
      "outputs": [],
      "stateMutability": "nonpayable",
      "type": "function"
    },
    {
      "inputs": [
        {
          "internalType": "uint256",
          "name": "",
          "type": "uint256"
        }
      ],
      "name": "redeemed",
      "outputs": [
        {
          "internalType": "bool",
          "name": "",
          "type": "bool"
        }
      ],
      "stateMutability": "view",
      "type": "function"
    },
    {
      "inputs": [],
      "name": "renounceOwnership",
      "outputs": [],
      "stateMutability": "nonpayable",
      "type": "function"
    },
    {
      "inputs": [
        {
          "internalType": "address",
          "name": "newOwner",
          "type": "address"
        }
      ],
      "name": "transferOwnership",
      "outputs": [],
      "stateMutability": "nonpayable",
      "type": "function"
    }
  ],
  "bytecode": "0x608060405234801561001057600080fd5b5033600073ffffffffffffffffffffffffffffffffffffffff168173ffffffffffffffffffffffffffffffffffffffff16036100845760006040517f1e4fbdf700000000000000000000000000000000000000000000000000000000815260040161007b919061019e565b60405180910390fd5b6100938161009960201b60201c565b506101b9565b60008060009054906101000a900473ffffffffffffffffffffffffffffffffffffffff169050816000806101000a81548173ffffffffffffffffffffffffffffffffffffffff021916908373ffffffffffffffffffffffffffffffffffffffff1602179055508173ffffffffffffffffffffffffffffffffffffffff168173ffffffffffffffffffffffffffffffffffffffff167f8be0079c531659141344cd1fd0a4f28419497f9722a3daafe3b4186f6b6457e060405160405180910390a35050565b600073ffffffffffffffffffffffffffffffffffffffff82169050919050565b60006101888261015d565b9050919050565b6101988161017d565b82525050565b60006020820190506101b3600083018461018f565b92915050565b610695806101c86000396000f3fe608060405234801561001057600080fd5b50600436106100625760003560e01c806332d33cd014610067578063715018a6146100975780637ed0f1c1146100a15780638da5cb5b146100d1578063db006a75146100ef578063f2fde38b1461010b575b600080fd5b610081600480360381019061007c91906104a0565b610127565b60405161008e91906104e8565b60405180910390f35b61009f610151565b005b6100bb60048036038101906100b691906104a0565b610165565b6040516100c891906104e8565b60405180910390f35b6100d9610185565b6040516100e69190610544565b60405180910390f35b610109600480360381019061010491906104a0565b6101ae565b005b6101256004803603810190610120919061058b565b61028c565b005b60006001600083815260200190815260200160002060009054906101000a900460ff169050919050565b610159610312565b6101636000610399565b565b60016020528060005260406000206000915054906101000a900460ff1681565b60008060009054906101000a900473ffffffffffffffffffffffffffffffffffffffff16905090565b6001600082815260200190815260200160002060009054906101000a900460ff161561020f576040517f08c379a000000000000000000000000000000000000000000000000000000000815260040161020690610615565b60405180910390fd5b600180600083815260200190815260200160002060006101000a81548160ff0219169083151502179055503373ffffffffffffffffffffffffffffffffffffffff16817fa18626381edd3d7a115c4a09f678bb79665034a541affcdba9fe65a1d3d107ee426040516102819190610644565b60405180910390a350565b610294610312565b600073ffffffffffffffffffffffffffffffffffffffff168173ffffffffffffffffffffffffffffffffffffffff16036103065760006040517f1e4fbdf70000000000000000000000000000000000000000000000000000000081526004016102fd9190610544565b60405180910390fd5b61030f81610399565b50565b61031a61045d565b73ffffffffffffffffffffffffffffffffffffffff16610338610185565b73ffffffffffffffffffffffffffffffffffffffff16146103975761035b61045d565b6040517f118cdaa700000000000000000000000000000000000000000000000000000000815260040161038e9190610544565b60405180910390fd5b565b60008060009054906101000a900473ffffffffffffffffffffffffffffffffffffffff169050816000806101000a81548173ffffffffffffffffffffffffffffffffffffffff021916908373ffffffffffffffffffffffffffffffffffffffff1602179055508173ffffffffffffffffffffffffffffffffffffffff168173ffffffffffffffffffffffffffffffffffffffff167f8be0079c531659141344cd1fd0a4f28419497f9722a3daafe3b4186f6b6457e060405160405180910390a35050565b600033905090565b600080fd5b6000819050919050565b61047d8161046a565b811461048857600080fd5b50565b60008135905061049a81610474565b92915050565b6000602082840312156104b6576104b5610465565b5b60006104c48482850161048b565b91505092915050565b60008115159050919050565b6104e2816104cd565b82525050565b60006020820190506104fd60008301846104d9565b92915050565b600073ffffffffffffffffffffffffffffffffffffffff82169050919050565b600061052e82610503565b9050919050565b61053e81610523565b82525050565b60006020820190506105596000830184610535565b92915050565b61056881610523565b811461057357600080fd5b50565b6000813590506105858161055f565b92915050565b6000602082840312156105a1576105a0610465565b5b60006105af84828501610576565b91505092915050565b600082825260208201905092915050565b7f416c72656164792072656465656d656400000000000000000000000000000000600082015250565b60006105ff6010836105b8565b915061060a826105c9565b602082019050919050565b6000602082019050818103600083015261062e816105f2565b9050919050565b61063e8161046a565b82525050565b60006020820190506106596000830184610635565b9291505056fea26469706673582212205ca4a755a3bb780b43ee71625ae03f7ac0259002748c78f030270356c6ffaa7464736f6c63430008140033",
  "linkReferences": {},
  "deployedLinkReferences": {}
}